:1000000071C000008FC000008DC000008BC00000D8
:1000100089C0000087C0000085C0000083C00000C8
:1000200081C000007FC000007DC000007BC00000D8
:1000300079C0000077C0000075C0000073C00000E8
:1000400071C000006FC000006DC000006BC00000F8
:1000500069C0000067C0000065C0000063C0000008
:1000600061C00000CAC500005DC000005BC00000A8
:1000700059C000007BC1000055C0000053C0000003
:1000800051C000004FC000004DC000004BC0000038
:1000900049C0000047C0000045C0000043C0000048
:1000A00041C000003FC000003DC000003BC0000058
:1000B00039C0000037C0000035C0000033C0000068
:1000C00031C000002FC00000C2C400002BC00000DF
:1000D00029C0000027C0000025C0000023C0000088
:1000E00021C0000011241FBECFEFD1E2DEBFCDBF83
:1000F00000E00CBF12E0A0E0B2E0ECE7F1E100E0CC
:100100000BBF02C007900D92A031B107D9F722E0D2
:10011000A0E1B2E001C01D92A335B207E1F7C5D559
:100120000C94BC086DCF9091C00095FFFCCF8093DC
:10013000C6000895CF93DF93D82FC0E013C027E007
:1001400030E02C1B31098D2F90E002C095958795EA
:100150002A95E2F780FF03C081E3E5DF02C080E378
:10016000E2DFCF5FC83058F3DF91CF9108954F920F
:100170005F926F927F92AF92BF92CF92DF92EF9297
:10018000FF920F931F93CF93DF932B013C0179D6FE
:100190006B017C0180E090E0A0D69B01AC01C30123
:1001A000B201A2D520E030E04AE754E428D769D66E
:1001B0002B013C0196013695279536952795369566
:1001C0002795A5ECB0E2B5D7EC01D295C295CF70DA
:1001D000CD27DF70CD27CA3018F080E3A4DF03C03D
:1001E0008C2F805DA0DF5E01BB2488E19CEFA89E80
:1001F0009001A99E300DB89E300D11242C0D3D1D8F
:100200003695279536952795ABE7B4E192D78C01C3
:10021000169507950A3018F080E385DF03C080E368
:10022000800F81DF28EE33E0A29EC001A39E900DD7
:10023000B29E900D112444E6049F800D911D11245F
:100240009601281B390BADECBCEC73D75C01B6945E
:10025000A794B694A794B694A79489E08A1518F445
:1002600080E361DF03C080E38A0D5DDF84E6809F69
:10027000002D112498E1C99F00191124AA0C8A2D80
:10028000880F880FA80EA00E8C2D8A198A3018F0BE
:1002900080E349DF02C0805D46DF8EE244DF9201E9
:1002A0003695279536952795ABE7B4E142D78C0173
:1002B000169507950A3018F080E335DF03C080E318
:1002C000800F31DF4CE9400390011124240D351DCE
:1002D000ADECBCEC2ED7EC01D695C795D695C7955D
:1002E000D695C795CA3018F080E31DDF03C08C2F68
:1002F000805D19DF8C2F880F982F990F990F890F28
:10030000819594E6099F80191124840D8A3018F094
:1003100080E309DF02C0805D06DFDF91CF911F918E
:100320000F91FF90EF90DF90CF90BF90AF907F90B4
:100330006F905F904F900895EAE7F0E080818068C9
:1003400080838081806280838081886080838081D7
:1003500087608083ACE7B0E08C9180648C938C9153
:1003600081608C9380818064808308951F920F92B6
:100370000FB60F9211240BB60F92CF92DF92EF922D
:10038000FF922F933F934F935F936F937F938F933E
:100390009F93AF93BF93CF93DF93EF93FF932091FE
:1003A00078008091790090E0982F8827EC01C22B8B
:1003B00080917C008F70813009F08FC0E0913B020A
:1003C000F0913C02EE0FFF1FEB5DFD4F60817181EC
:1003D00080E090E082D59B01AC0160914102709178
:1003E000420280914302909144027ED46B017C01D1
:1003F000BE0180E090E071D5A701960176D46B0133
:100400007C01609341027093420280934302909377
:100410004402E0913B02F0913C02EE0FFF1FEB5DC6
:10042000FD4FD183C08380913B0290913C020196A5
:100430006AE070E06BD690933C0280933B0220E030
:1004400030E040E251E4C701B601B3D41AD5EB0164
:1004500080E090E042D52DE637EE4BE95BE3CFD567
:100460002DE637EE4BE150E43FD49F77609349028D
:1004700070934A0280934B0290934C0221E338E040
:100480004CE151E4BCD56B017C0160934502709353
:100490004602809347029093480226E636E642EBF6
:1004A00051E4A9D51816ACF481E080930802C11577
:1004B000D24020F48DE280930A0203C08BE2809345
:1004C0000A02C0920B02D0920C02E0920D02F0924E
:1004D0000E0282E480937C0098C080917C008F7033
:1004E000823009F08FC0E0913B02F0913C02EE0FA8
:1004F000FF1FEF5EFD4F6081718180E090E0EDD4E1
:100500009B01AC0160913D0270913E0280913F02DF
:1005100090914002E9D36B017C01BE0180E090E044
:10052000DCD4A7019601E1D36B017C0160933D020D
:1005300070933E0280933F0290934002E0913B0211
:10054000F0913C02EE0FFF1FEF5EFD4FD183C083A1
:100550008091390290913A0201966AE070E0D6D516
:1005600090933A028093390220E030E040E251E477
:10057000C701B6011ED485D4EB0180E090E0ADD474
:100580002DE637EE4BE95BE33AD52DE637EE4BE14E
:1005900050E4AAD39F776093490270934A028093F4
:1005A0004B0290934C0221E338E04CE151E427D513
:1005B0006B017C0160934502709346028093470271
:1005C0009093480226E636E642EB51E414D518161D
:1005D000ACF481E080930102C115D24020F48DE299
:1005E0008093030203C08BE280930302C092040253
:1005F000D0920502E0920602F092070281E4809315
:100600007C0003C081E480937C00FF91EF91DF9137
:10061000CF91BF91AF919F918F917F916F915F919A
:100620004F913F912F91FF90EF90DF90CF900F90DF
:100630000BBE0F900FBE0F901F901895CF93DF93B6
:10064000CDB7DEB727970FB6F894DEBF0FBECDBF8C
:1006500029833A834B835C836D837E838F83F894F5
:100660008AE061DD8A815FDD80E25DDD8B815BDDBB
:100670006C817D818E819F817ADD789427960FB67B
:10068000F894DEBF0FBECDBFDF91CF91089580916A
:1006900000028C3431F0823511F1833409F041C00D
:1006A0003CC0809108028823B1F02091080230916B
:1006B000090240910A0250910B0260910C02709164
:1006C0000D0280910E02BADFE8E0F2E010821382A0
:1006D00014821582168282E580930002089580912B
:1006E00001028823B1F02091010230910202409171
:1006F00003025091040260910502709106028091FC
:1007000007029CDFE1E0F2E010821382148215827E
:10071000168283E48093000208958CE480930002A3
:1007200008958CE480930002089581E08093C400D2
:10073000E1ECF0E0808188698083E2ECF0E0808188
:10074000866080830895EAE0F1E08081806880839C
:1007500080818F7B80838DB18F7D8DB98DB18F7EB0
:100760008DB984B1806284B984B1806484B984B164
:10077000806884B9A1E0B1E08C9188608C938C9101
:1007800080618C938C9180628C9380818061808366
:10079000089587EB9BE09093890080938800909365
:1007A0008B0080938A00089587EB9BE090932B0148
:1007B00080932A019093A9008093A8009093AB00A6
:1007C0008093AA009093AD008093AC00089580912F
:1007D0004F02803209F43BC088F4843009F458C0D9
:1007E00038F4813009F46AC0823009F45CC0C9C0B1
:1007F000883009F442C08031A9F1C3C0803609F4C1
:1008000068C030F4803309F479C08034A9F0B9C0ED
:10081000803909F4A1C0803C09F487C0803809F010
:10082000B0C08FEC97E09093AB008093AA0083E672
:100830007ADC82E678CC08958BEA9DE09093AD0057
:100840008093AC0085E66FDC84E66DCC08958FE97B
:100850009FE09093AB008093AA0083E664DC86E679
:1008600062CC089583EC99E09093AD008093AC0046
:1008700085E659DC85E757CC08958FE99FE0909392
:100880002B0180932A0184E64EDC86E64CCC089549
:100890008BEA9DE09093A9008093A80085E643DC55
:1008A00086E641CC08958FEC97E090932B018093DE
:1008B0002A0184E638DC82E636CC089583EC99E0A0
:1008C0009093A9008093A80085E62DDC82E62BCCCE
:1008D00008958BEA9DE09093AD008093AC009093D7
:1008E000AB008093AA0085E61EDC84E61CDC86E271
:1008F0001ADC83E618DC86E616CC089583EC99E0D2
:100900009093AD008093AC008BEA9DE09093AB0098
:100910008093AA0085E607DC85E705DC86E203DC38
:1009200083E601DC86E6FFCB08958BEA9DE0909399
:10093000AD008093AC0083EC99E09093AB00809382
:10094000AA0085E6F0DB84E6EEDB86E2ECDB83E6FC
:10095000EADB82E6E8CB089583EC99E09093AD0062
:100960008093AC009093AB008093AA0085E6DBDB1C
:1009700085E7D9DB86E2D7DB83E6D5DB82E6D3CB1E
:10098000089583E7D0DB84E7CEDB81E6CCDB88E625
:10099000CADB80E7C8DB08CF08958DE6C4DB83E7B8
:1009A000C2DB87E6C0DB8AE3BEDB80E2BCDB809192
:1009B0004E02813319F0823379F02FC082E6B3DB27
:1009C00085E7B1DB84E7AFDB84E7ADDB89E0ABDB58
:1009D000FEDE109210022DC08AE6A5DB8FE6A3DBB7
:1009E00089E7A1DB89E09FDBEDE4F2E0828190E022
:1009F000982F88272381822B9093890080938800E9
:100A0000848190E0982F88272581822B90938B00FA
:100A100080938A00109210020CC089E084DB89E088
:100A200082DB84E680DB86E67EDB8CE67CDB84E7AB
:100A30007ADB8AE078DB8AE076DB8DE074DBEDE45C
:100A4000F2E01182128213821482158208951F929D
:100A50000F920FB60F9211240BB60F922F933F9364
:100A60004F935F936F937F938F939F93AF93BF93B6
:100A7000EF93FF93F89480911002803FB1F489DEE8
:100A800093DE109210028AE04EDB8AE54CDB8FE4A5
:100A90004ADB89E448DB8EE446DB8BE444DB83E518
:100AA00042DB8AE040DB8DE03EDB809110028F5F0D
:100AB000809310027894FF91EF91BF91AF919F9135
:100AC0008F917F916F915F914F913F912F910F90F7
:100AD0000BBE0F900FBE0F901F901895E0E8F0E04E
:100AE00080818260808380818E7F8083A1E8B0E0F6
:100AF0008C9188618C938C918A7F8C938C9182608D
:100B00008C938081886A808380818B7A80838FE454
:100B100093EC909387008093860087EB9BE0909303
:100B200089008093880090938B0080938A00909333
:100B30008D0080938C000895E0EAF0E0808182606F
:100B4000808380818E7F8083A1EAB0E08C91886170
:100B50008C938C918A7F8C938C9182608C93808112
:100B6000886A808380818B7A80838FE493EC909372
:100B7000A7008093A60087EB9BE09093A900809349
:100B8000A8009093AB008093AA009093AD0080934F
:100B9000AC000895E0E2F1E0808182608083808192
:100BA0008E7F8083A1E2B1E08C9188618C938C91DF
:100BB0008A7F8C938C9182608C938081886A8083F9
:100BC00080818B7A8083E3E7F0E08081816080839D
:100BD0008FE493EC909327018093260187EB9BE0B1
:100BE000909329018093280190932B0180932A01EF
:100BF00090932D0180932C0108951F920F920FB6B0
:100C00000F9211240BB60F922F933F934F935F9344
:100C10006F937F938F939F93AF93BF93CF93DF9304
:100C2000EF93FF93F894CDE4D2E0E881F0E0809177
:100C3000C600E35BFD4F81838881805D74DA80E2CA
:100C400072DAE881F0E0E35BFD4F818173DA80E2E4
:100C50006ADAE881F0E0E35BFD4F818164DA80E2EB
:100C600062DA8AE060DA8DE05EDA88818F5F8883FD
:100C70008881853020F0CE0190DE10924D0278946C
:100C8000FF91EF91DF91CF91BF91AF919F918F91A4
:100C90007F916F915F914F913F912F910F900BBE7C
:100CA0000F900FBE0F901F9018954DDD72DD7CDD0B
:100CB0003CDD42DB13DF40DF6DDF89E634DA8EE6B0
:100CC00032DA89E630DA84E72EDA8AE02CDA10921A
:100CD0004D0280B38D7F80BBEAE7F0E080818064C5
:100CE00080837894D4DCFECF5058BB27AA270ED03F
:100CF00048C139D130F03ED120F031F49F3F11F49A
:100D00001EF42EC10EF4E095E7FB24C1E92F4AD171
:100D100080F3BA17620773078407950718F071F418
:100D20009EF562C10EF4E0950B2EBA2FA02D0B019B
:100D3000B90190010C01CA01A0011124FF27591B20
:100D400099F0593F50F4503E68F11A16F040A22F26
:100D5000232F342F4427585FF3CF46953795279597
:100D6000A795F0405395C9F77EF41F16BA0B620B96
:100D7000730B840BBAF09150A1F0FF0FBB1F661FDD
:100D8000771F881FC2F70EC0BA0F621F731F841F20
:100D900048F4879577956795B795F7959E3F08F046
:100DA000B3CF9395880F08F09927EE0F9795879505
:100DB00008950CD0E6C0DED040F0D5D030F021F45C
:100DC0005F3F19F0C7C0511110C1CAC0EBD098F3F2
:100DD0009923C9F35523B1F3951B550BBB27AA27BC
:100DE00062177307840738F09F5F5F4F220F331F2E
:100DF000441FAA1FA9F333D00E2E3AF0E0E830D0FA
:100E000091505040E695001CCAF729D0FE2F27D0FC
:100E1000660F771F881FBB1F261737074807AB07CA
:100E2000B0E809F0BB0B802DBF01FF2793585F4F3F
:100E30002AF09E3F510568F08DC0D7C05F3FECF3AC
:100E4000983EDCF3869577956795B795F7959F5F04
:100E5000C9F7880F911D9695879597F90895E1E058
:100E6000660F771F881FBB1F621773078407BA07B7
:100E700020F0621B730B840BBA0BEE1F88F7E09512
:100E8000089598D088F09F5790F0B92F9927B751BF
:100E9000A0F0D1F0660F771F881F991F1AF0BA953E
:100EA000C9F712C0B13081F09FD0B1E008959CC065
:100EB000672F782F8827B85F39F0B93FCCF3869534
:100EC00077956795B395D9F73EF490958095709591
:100ED00061957F4F8F4F9F4F0895E89409C097FB0E
:100EE0003EF490958095709561957F4F8F4F9F4F01
:100EF0009923A9F0F92F96E9BB279395F695879545
:100F000077956795B795F111F8CFFAF4BB0F11F407
:100F100060FF1BC06F5F7F4F8F4F9F4F16C08823AE
:100F200011F096E911C0772321F09EE8872F762FE4
:100F300005C0662371F096E8862F70E060E02AF025
:100F40009A95660F771F881FDAF7880F9695879511
:100F500097F9089597F99F6780E870E060E0089539
:100F60009FEF80EC089500240A94161617061806C1
:100F70000906089500240A9412161306140605069D
:100F80000895092E0394000C11F4882352F0BB0F2E
:100F900040F4BF2B11F460FF04C06F5F7F4F8F4F91
:100FA0009F4F089557FD9058440F551F59F05F3FCC
:100FB00071F04795880F97FB991F61F09F3F79F07B
:100FC00087950895121613061406551FF2CF4695FD
:100FD000F1DF08C0161617061806991FF1CF86957F
:100FE0007105610508940895E894BB276627772763
:100FF000CB0197F9089566D008F48FEF08950BD0D0
:10100000C0CFB1DF28F0B6DF18F0952309F0A2CFEA
:10101000A7CF1124EACFC6DFA0F3959FD1F3950F98
:1010200050E0551F629FF001729FBB27F00DB11D6C
:10103000639FAA27F00DB11DAA1F649F6627B00DFC
:10104000A11D661F829F2227B00DA11D621F739FE5
:10105000B00DA11D621F839FA00D611D221F749FF3
:101060003327A00D611D231F849F600D211D822F3A
:10107000762F6A2F11249F5750408AF0E1F0882381
:101080004AF0EE0FFF1FBB1F661F771F881F91508E
:101090005040A9F79E3F510570F05CCFA6CF5F3F4F
:1010A000ECF3983EDCF3869577956795B795F795C1
:1010B000E7959F5FC1F7FE2B880F911D9695879549
:1010C00097F90895990F0008550FAA0BE0E8FEEF75
:1010D00016161706E807F907C0F012161306E407FC
:1010E000F50798F0621B730B840B950B39F40A26F5
:1010F00061F0232B242B252B21F408950A2609F4D3
:10110000A140A6958FEF811D811D089597FB072EA5
:1011100016F4009406D077FD08D01AD007FC05D04D
:101120003EF4909581959F4F0895709561957F4FFE
:101130000895A29FB001B39FC001A39F700D811DB0
:101140001124911DB29F700D811D1124911D0895D0
:10115000AA1BBB1B51E107C0AA1FBB1FA617B707DD
:1011600010F0A61BB70B881F991F5A95A9F78095F9
:0C1170009095BC01CD010895F894FFCFCC
:10117C004C00520000000000004C00000000000079
:00000001FF
